:100000000C9483000C94AB000C94AB000C94AB00EC
:100010000C94AB000C949A030C94AB000C94AB00C2
:100020000C94AB000C94AB000C94AB000C94AB00A4
:100030000C94AB000C94AB000C94AB000C94AB0094
:100040000C944C090C94AB000C9489020C94A702FC
:100050000C94AB000C94AB000C94AB000C94AB0074
:100060000C945B010C94AB000001020541524D3B26
:10007000414E474C453B484F52495A4F4E3B4D41EC
:10008000473B00524F4C4C3B50495443483B59412D
:10009000573B414C543B506F733B506F73523B4E38
:1000A0006176523B4C4556454C3B4D41473B56458E
:1000B0004C3B0000000008000201000003040700A0
:1000C0000000000000000000000000250028002BB8
:1000D0000000000000240027002A00040404040497
:1000E00004040402020202020203030303030301E5
:1000F00002040810204080010204081020010204BC
:10010000081020006F1711241FBECFEFD8E0DEBF0C
:10011000CDBF11E0A0E0B1E0E0ECF4E302C0059057
:100120000D92AE37B107D9F726E0AEE7B1E001C0D6
:100130001D92A034B207E1F710E0C3E8D0E004C09C
:100140002197FE010E94481AC238D107C9F70E94C0
:1001500096090C945E1A0C940000CF92DF92EF92F5
:10016000FF920F931F93CF93DF936C017A018B0162
:10017000C0E0D0E0CE15DF0589F0D8016D918D018A
:10018000D601ED91FC910190F081E02DC601099519
:10019000892B11F47E0102C02196ECCFC701DF91BB
:1001A000CF911F910F91FF90EF90DF90CF90089526
:1001B000089581E090E0309184012091830132170D
:1001C00010F480E090E091958195910908958091D7
:1001D000840190918301891730F48F5F80938401AB
:1001E00080E090E008958FEF9FEF08958091830164
:1001F00090E020918401821B91090895089580E088
:1002000090E0089585ED8093BC008091BC0084FD52
:10021000FCCF1092800108954091E805262F30E030
:10022000240F311D21323105DCF42091800124306E
:10023000C9F4FC0180E090E0861758F43091E8059D
:100240002191DC01AA53BA4FA30FB11D2C93019643
:10025000F3CF8091E805680F6093E80580E008958A
:1002600081E0089582E00895CF93DF9300D0CDB769
:10027000DEB7CB01642F49835A830E940C01498168
:10028000842F5A81952F0F900F90DF91CF91089571
:10029000CF93DF931F92CDB7DEB7698361E0CE01C4
:1002A00001960E940C0181E090E00F90DF91CF91C8
:1002B00008950E94591A1F920F920FB60F9211249F
:1002C0002F933F934F935F936F937F938F939F935E
:1002D000AF93BF93EF93FF938091B900887F8036EF
:1002E00009F49CC068F5883209F45BC090F4803151
:1002F00009F454C038F4882309F4F6C0883009F4AE
:100300004DC0F6C0883109F44CC0803209F45DC09C
:10031000EFC0803409F468C048F4803309F455C054
:10032000883309F0E5C080930D06D8C0803509F404
:100330004FC0883509F45DC0883409F0D9C0D6C0F3
:10034000883909F4C7C0A8F4883709F467C038F4BD
:10035000883609F463C0803709F460C0C9C08838A2
:1003600009F4B8C0803909F45FC0803809F0C0C012
:100370005BC0803B09F486C038F4803A09F466C05B
:10038000883A09F47FC0B4C0803C09F4A7C0883C17
:1003900009F4A4C0883B09F48AC0AAC08091300641
:1003A00010C090912F0680912E06981770F5E0915D
:1003B0002F0681E08E0F80932F06F0E0E25FF94F69
:1003C00080818093BB0085EC86C080930D068EC033
:1003D000E0912F0681E08E0F80932F068091BB0065
:1003E000F0E0E25FF94F808390912F0680912E0616
:1003F0006EC0E0912F0681E08E0F80932F068091D2
:10040000BB00F0E0E25FF94F808380917F018111B2
:100410006DC081E080937E0184EA61C083E08093B7
:10042000800110920C06CFCF80910C06803208F02C
:1004300051C0E0910C0681E08E0F80930C068091F4
:10044000BB00F0E0E451FA4F8083BDCF85EC809390
:10045000BC001092800180910C06803230F4E09153
:100460000C06F0E0E451FA4F108260910C0670E047
:10047000E091EA05F091EB058CEE95E0099510927C
:100480000C0636C084E0809380011092E90510923A
:10049000E805E091E605F091E70509958091E8050A
:1004A000811105C081E08093E8051092C605E091B6
:1004B000E90581E08E0F8093E905F0E0EA53FA4FF9
:1004C00080818093BB009091E9058091E8059817A1
:1004D00008F479CF85E88093BC000AC085EC80934E
:1004E000BC001092800104C010920D060E9402010F
:1004F000FF91EF91BF91AF919F918F917F916F91FC
:100500005F914F913F912F910F900FBE0F901F90D1
:1005100018951F920F920FB60F9211248F939F93ED
:10052000EF93FF939091C600E091930181E08E0FCD
:10053000F0E0EC56FE4F908380939301FF91EF9192
:100540009F918F910F900FBE0F901F9018951F9243
:100550000F920FB60F9211248F939F93EF93FF93F7
:100560008091910190919201981761F08F5F87FDC2
:1005700080E0E82FF0E0EA5BFA4F90819093C600AC
:100580008093910190919201891305C08091C100DF
:100590008F7D8093C100FF91EF919F918F910F907C
:1005A0000FBE0F901F901895CF92DF92EF92FF929F
:1005B000CF93DF9383E40E9433088091330690E069
:1005C000982F882720913406822B959587959595AD
:1005D000879590932D0380932C038091310690E0B2
:1005E000982F882720913206822B91958195910929
:1005F000959587959595879590932F0380932E03D6
:100600008091350690E0982F882720913606822B1E
:100610009195819591099595879595958795909355
:100620003103809330032091400330914103211521
:100630003105A9F14CE253E0EAE3F5E0C4E3D5E08B
:10064000211582E0380721F4108211821282138270
:10065000DA018D919D91AD01092E000CAA0BBB0B07
:10066000C080D180E280F3808C0D9D1DAE1DBF1D2A
:1006700081939193A193B19369E0B595A7959795CF
:1006800087956A95D1F789939993B5E0E634FB078E
:10069000B9F6215031093093410320934003C4E35C
:1006A000D5E0ECE2F3E0AEE2B5E0899199912081EA
:1006B0003181281B390B4D915C911197CA018052F1
:1006C00093402817390734F0805C994F2817390771
:1006D0000CF4C901819391938D939D9383E0E23350
:1006E000F80719F7DF91CF91FF90EF90DF90CF904F
:1006F00008958093BC008FEF9091BC0097FD0EC0D1
:100700008150D1F71092BC008091A4029091A50273
:1007100001969093A5028093A40208950895CF9323
:10072000C82F84EA0E947903C093BB0084E8CF916C
:100730000C9479031F920F920FB60F9211242F93EE
:100740003F934F935F936F937F938F939F93AF9359
:10075000BF93CF93DF93EF93FF93C9B1D0912D0552
:10076000DC270E94ED087894C0932D05D2FF18C0B5
:10077000C2FD12C020911D0530911E05AB01421B28
:10078000530B9A01455853404331554048F4309338
:1007900005012093040104C070931E0560931D059C
:1007A000D4FF18C0C4FD12C020911F053091200550
:1007B000AB01421B530B9A014558534043315540FE
:1007C00048F4309309012093080104C07093200578
:1007D00060931F05D5FF18C0C5FD12C020912105EB
:1007E00030912205AB01421B530B9A0145585340EF
:1007F0004331554048F430930B0120930A0104C063
:100800007093220560932105D6FF18C0C6FD12C063
:100810002091230530912405AB01421B530B9A0113
:10082000455853404331554048F430930D012093CF
:100830000C0104C07093240560932305D7FF17C0F3
:10084000C7FD11C02091250530912605621B730B51
:10085000CB01855893408331954048F470930F0144
:1008600060930E0104C07093260560932505FF91E7
:10087000EF91DF91CF91BF91AF919F918F917F9138
:100880006F915F914F913F912F910F900FBE0F90FD
:100890001F9018956150A0F02091E90230E0F90115
:1008A000E951FD4F408151E0540F50832A553D4F8F
:1008B000F901E40FF11D2081FC012193CF01EACF62
:1008C00008952091E90230E0D901AE56BE4F9C91C7
:1008D0009F5F97FD90E0F901EA5BFA4FE90FF11D88
:1008E00080839C93F901E851FD4F90818927808393
:1008F00008951F93CF93DF93C82FD92F162F180F6A
:100900001C1721F089910E946104FACFDF91CF91E9
:100910001F910895E091E902F0E0E851FD4F8081D8
:100920000E946104E1ECF0E08081806280830895A0
:10093000CF93DF93D82FC62F84E20E9461048DE409
:100940000E946104D11102C08EE301C081E20E94C5
:100950006104E091E902F0E0E851FD4F10828C2F34
:100960000E946104E091E902F0E0EA51FD4F8081CC
:10097000DF91CF910C946104CF93DF93EC010E943F
:100980008017682F80E00E949804FE0184918823DC
:1009900031F0FE0184910E9461042196F6CFDF912F
:1009A000CF910C948A0460E080E00E9498040C943B
:1009B0008A040F931F93CF938C01C62F80E00E946F
:1009C00098046C2FC8010E947904CF911F910F9158
:1009D0000C948A04EAE0F3E08081918123E095950C
:1009E00087952A95E1F7909389008093880082810A
:1009F000938133E0959587953A95E1F790938B0035
:100A000080938A008481958143E0959587954A95E6
:100A1000E1F78093B3008681978153E095958795A0
:100A20005A95E1F78093B40008958091420381FFC5
:100A30000CC08CE00E945D0860E08CE00E94A10880
:100A4000809142038D7F8093420308959B01AC0106
:100A5000AA27429FB0015302C00134039A0B700DC4
:100A6000811D9A1F52039A0B700D811D9A1F11242C
:100A700008956F927F928F929F92AF92BF92CF9282
:100A8000DF92EF92FF920F931F93CF93DF93EC01CE
:100A90008B016A807B80CE80DF80EA84FB84B30197
:100AA000F801808191810E9426054B015C01B6010D
:100AB000F801828193810E942605AB01BC01480D9B
:100AC000591D6A1D7B1D88859985AA85BB85841B58
:100AD000950BA60BB70B88879987AA87BB87B701A9
:100AE000F801808191810E9426054B015C01B601CD
:100AF000F801848195810E942605861A970AA80A22
:100B0000B90A88819981AA81BB81880E991EAA1E83
:100B1000BB1E88829982AA82BB82B701F8018281BA
:100B200093810E9426056B017C01B301F801848149
:100B300095810E942605DC01CB018C0D9D1DAE1D0B
:100B4000BF1D0C811D812E813F81800F911FA21F2F
:100B5000B31F8C839D83AE83BF83DF91CF911F91A1
:100B60000F91FF90EF90DF90CF90BF90AF909F904C
:100B70008F907F906F9008954F925F926F927F92C7
:100B80008F929F92AF92BF92CF92DF92EF92FF929D
:100B9000CF936B017C0149015A010E94C8182B01B7
:100BA0003C01B701A601F7FE07C044275527BA014B
:100BB0004C195D096E097F09D501C401B7FE07C054
:100BC00088279927DC0188199909AA09BB09C1E07E
:100BD000481759076A077B0744F0C0E0C501B40114
:100BE0000E94C818A301920108C0C501B4010E9467
:100BF000C8189B01AC01C301B2010E941E182B0151
:100C00003C019B01AC010E94541921ED31E944E6FD
:100C100050E40E94B2179B01AC01C301B2010E94D3
:100C20001E1823EC3DEC4FEF54E40E9454190E942F
:100C300090189B01CC2359F0B7FE12C0F7FE03C0F9
:100C4000285037400DC09B01285F384F09C0F7FC82
:100C500003C024E833E002C02CE73CEF261B370B2F
:100C6000C901CF91FF90EF90DF90CF90BF90AF90F0
:100C70009F908F907F906F905F904F90089540E18C
:100C800050E060E070E084E992E00E948917E4E9B6
:100C9000F2E085E59FE09E0F9E1719F02191820FEB
:100CA000FBCF9091A302891741F01092940288E83B
:100CB00093E190939602809395020895CF92DF92EC
:100CC000EF92FF920F931F93CF93DF93082F142F70
:100CD000C0E0C62ED12CE12CF12CC11791F0D0E050
:100CE000D01739F01D9AC701B6010E941209DF5FC3
:100CF000F7CF6CE370E080E090E00E941209CF5FD4
:100D0000ECCFDF91CF911F910F91FF90EF90DF908B
:100D1000CF9008958CE00E945D0861E08CE00E9415
:100D2000A108209140033091410380914203232B7D
:100D300089F482FF0FC0982F9274B1F4826080937F
:100D4000420380913E0390913F0390933903809337
:100D50003803089581FD08C041E06FEF82E00E94F2
:100D60005E0681E080931B0508952F923F924F927B
:100D70005F926F927F928F929F92AF92BF92CF922B
:100D8000DF92EF92FF920F931F93CF93DF93CDB734
:100D9000DEB72A970FB6F894DEBF0FBECDBF109214
:100DA000940240E750E060E170E084E493E00E9448
:100DB0008917E4E4F3E085E59FE69E0F9E1719F09E
:100DC0002191820FFBCF9091B3038913B1C0E090C2
:100DD0006303F12C0091620390E0C92E93E0D92EB9
:100DE000612C712C10E028EA822E24E0922EA12C96
:100DF000B12C669C9001679C300D300D11242F5052
:100E00003109E29EC001E39E900DF29E900D1124E7
:100E10008A509A4F869DD001879DB00D969DB00D4A
:100E2000112498010E94251AA50194010E94F71926
:100E3000F601219331936F01FFEF6F1A7F0A25E0CE
:100E400062167104B1F61091670304E6011BE4E633
:100E50001E9FC00111249C838B8320906803422C29
:100E6000512C612C712CE090AE03F090AF0388E020
:100E700097E06C01CE18DF088AEE92E09A838983AE
:100E80001A86312C80E1882E87E2982EA12CB12C75
:100E90009A85911B9987191614F0412F01C0402F94
:100EA000E985EE02D001112491010E94251A6D837B
:100EB0007E838F839887242F30E0D9010E94161AF1
:100EC0009B01AC016D817E818F8198850E94F7190D
:100ED000DA01C9018C599F4FAF4FBF4F8419950953
:100EE000A609B709F9852F2FFF0F330B289FA00103
:100EF000299F500D389F500D11242B813C81240FC8
:100F0000351FD6010E94161AA50194010E94D51919
:100F10002E0D3F1DE981FA8121933193FA83E983F4
:100F2000FA85F65FFA87FE3609F0B2CF81E008C095
:100F300043E064E686E00E945E060E94DD0780E0F2
:100F40002A960FB6F894DEBF0FBECDBFDF91CF91CA
:100F50001F910F91FF90EF90DF90CF90BF90AF90D7
:100F60009F908F907F906F905F904F903F902F90C9
:100F70000895CF93C82F10929402E4E4F3E095E52E
:100F80008FE68E0F8E1719F02191920FFBCF909361
:100F9000B30340E750E060E170E084E493E00E9436
:100FA00099170E94B506C13031F441E064E18FE049
:100FB000CF910C945E06CF910895E4E4F3E081E2D2
:100FC00080832EE1218397E1928383832483958319
:100FD0002AE5258B9AE0968B34E6378B34E436830A
:100FE0003DE23783108630E4318739E1328748E1CA
:100FF00043874FE044871586168642E247874EE0D6
:10100000408B45E3418B328B838B83E5848B88E275
:10101000808F138E148E158E268F81E4878F10A2F9
:1010200011A212A282E383A314A212A611A614A6EF
:1010300013A616A615A610AA17A616A215A210A6E4
:1010400017A211AA2CE934E03093AF032093AE032A
:101050009093B00388E790E09093B2038093B1033C
:1010600080E00C94B9071F93CF93DF93C82F80EDD6
:101070000E948F03C093BB0084E80E94790381ED36
:101080000E948F03C1E3D6E01C2F1B5F1C1739F0B1
:1010900084EC0E9479038091BB008993F7CF84E8A8
:1010A0000E9479038091BB0094E99093BC008093E7
:1010B0003606DF91CF911F91089590E0FC01E15138
:1010C000FF4F2491FC01E552FF4F8491882399F052
:1010D00090E0880F991FFC01EF52FF4FA591B4914A
:1010E000FC01E953FF4F859194918FB7F894EC91EF
:1010F000E22BEC938FBF0895EF92FF921F93CF9353
:10110000DF931F92CDB7DEB7182F80ED69830E9461
:101110008F038BEBE82EF12CF701108384E80E94FB
:1011200079036981F701608384E80E94790384E987
:101130008093BC000F90DF91CF911F91FF90EF90B3
:10114000089590E0FC01ED54FF4F3491FC01E15112
:10115000FF4F2491FC01E552FF4FE491EE2309F487
:101160003BC0332339F1333091F038F43130A9F0FA
:10117000323001F584B58F7D12C0373091F03830B0
:10118000A1F03430B9F4809180008F7D03C080914C
:1011900080008F77809380000DC084B58F7784BDE9
:1011A00009C08091B0008F7703C08091B0008F7D1F
:1011B0008093B000F0E0EE0FFF1FE953FF4FA591C1
:1011C000B4918FB7F894EC91611103C020952E2350
:1011D00001C02E2B2C938FBF08953FB7F8948091B8
:1011E0003C0690913D06A0913E06B0913F0626B583
:1011F000A89B05C02F3F19F00196A11DB11D3FBF4F
:10120000BA2FA92F982F8827820F911DA11DB11DDC
:10121000BC01CD0142E0660F771F881F991F4A95D8
:10122000D1F708958F929F92AF92BF92CF92DF92A3
:10123000EF92FF926B017C010E94ED084B015C0173
:10124000C114D104E104F104F1F00E94ED08DC01C5
:10125000CB0188199909AA09BB09883E9340A105C9
:10126000B10570F321E0C21AD108E108F10888EE57
:10127000880E83E0981EA11CB11CC114D104E104A6
:10128000F10419F7DDCFFF90EF90DF90CF90BF9082
:10129000AF909F908F9008951F920F920FB60F926C
:1012A00011242F933F938F939F93AF93BF9380917C
:1012B000380690913906A0913A06B0913B063091DC
:1012C000370623E0230F2D3720F40196A11DB11D11
:1012D00005C026E8230F0296A11DB11D20933706F5
:1012E0008093380690933906A0933A06B0933B0654
:1012F00080913C0690913D06A0913E06B0913F063C
:101300000196A11DB11D80933C0690933D06A093CC
:101310003E06B0933F06BF91AF919F918F913F9151
:101320002F910F900FBE0F901F901895CF93DF93C2
:10133000CDB7DEB7EE970FB6F894DEBF0FBECDBFC8
:10134000789484B5826084BD84B5816084BD85B5A0
:10135000826085BD85B5816085BD80916E008160AC
:1013600080936E0010928100809181008260809352
:101370008100809181008160809381008091800054
:101380008160809380008091B10084608093B1007F
:101390008091B00081608093B00080917A00846079
:1013A00080937A0080917A00826080937A008091A5
:1013B0007A00816080937A0080917A0080688093BF
:1013C0007A001092C1001092840110928301109251
:1013D0008201109281011092800181E080937F014F
:1013E00010927E0161E082E10E94A10861E083E148
:1013F0000E94A1088091B9008E7F8093B9008091EE
:10140000B9008D7F8093B90088E48093B80085E4AB
:101410008093BC0082E08093C0001092C50080E100
:101420008093C4008091C10088698093C1008DE0E1
:101430000E945D0888E00E945D0808E211E094E0E7
:10144000F92EF00ED8018D918D010E945D08F012E9
:10145000F9CF809180008068809380008091800027
:101460008062809380008091B00080688093B0009B
:101470008091B00080628093B00088EE93E09093FA
:101480000B0380930A0390930D0380930C039093B6
:101490000F0380930E0390931103809310030E9417
:1014A000EA046CE271E080E090E00E9412090E9480
:1014B0003F06109294020E94B50680919402882300
:1014C00021F0815080939402F6CF0E943F060E9443
:1014D000B506409194024F5F68E282E00E945E068A
:1014E000E0E4F1E095E09E0F2BB1DF018191822BCA
:1014F0008BB920916D008C91822B80936D009E138F
:10150000F3CF84E08093680015E00CE084E0F82ECF
:10151000449845981092B9000093B800F092BC002E
:101520001092A5021092A40260E88BE60E947C084B
:1015300062E370E080E090E00E94120963E08BE6D5
:101540000E947C0860E08AE10E947C0868E18BE1EF
:101550000E947C0862E087E30E947C0860E18CE1E5
:101560000E947C088091A4029091A502892B11F021
:10157000115071F60E94ED087093EA046093E9043B
:1015800080E092E0909341038093400388EC90E0E8
:101590009093B5038093B403809142038068809355
:1015A0004203E0918704A3E6B1E09D91992359F0AD
:1015B00081E08E0FF0E0EA5FFB4F9083803809F402
:1015C00080E0E82FF2CFE093870488E690E014E013
:1015D000812E880E8AAE8BEE94E0A4E09A2E980EAF
:1015E00098AE84E992E0BFE0AB2EA80EA9AE809140
:1015F0000F059091100520910D0530910E057C018D
:10160000E21AF30A1E141F040CF0A8C1805E914B6D
:1016100090930E0580930D058091E6038F5F8330D4
:1016200019F08093E60302C01092E603F5E4EF2E72
:10163000F1E0FF2E46EB53E06DEF74E000EA14E0BA
:10164000DB0120E030E08FB7F894F70191917F0142
:10165000E92FF0E0EE0FFF1FE050FF4FC080D18078
:101660008FBFFA01A080B180828193818A0D9B1D7A
:101670000296A480B5808A0D9B1D8C0D9D1D9695AC
:10168000879596958795ED91FC91119733978E17D5
:101690009F0728F4FC0132961196FC93EE93ED918E
:1016A000FC9111973396E817F90720F402971196E9
:1016B0009C938E938091E603F901EE0FFF1FE20FDA
:1016C000F31FE80FF11DEE0FFF1FEA54FC4FD1820C
:1016D000C08280919F04882369F0815080939F0489
:1016E000F801808191818538F3E09F071CF0119605
:1016F0009C938E932F5F3F4F4A5F5F4F12960E5F12
:101700001F4F2830310509F09ECF10E0812F90E067
:101710009595879595958795182FDB012D913D918E
:10172000BD012C3BB4E03B0724F010682437374060
:101730000CF41064F5E065307F0741F78091FC04FC
:10174000181308C08091FB048A3F30F48F5F8093A8
:10175000FB0402C01092FB041093FC04809103056B
:10176000909104058C3B944074F51092F80410920B
:10177000F7041092FA041092F9041092F3041092F4
:10178000F4041092F5041092F6041092F0041092F2
:10179000EF041092F2041092F10480916D03909185
:1017A0006E03892B71F09091EB0480914203992391
:1017B00029F080FF03C00E948A0603C081FD0E94B9
:1017C00015050E948A068091FB04843171F4809192
:1017D000420381FF11C080916D0390916E03892BAC
:1017E00021F41F3511F40E941505A5E0B5E080E055
:1017F00090E0E0E0F0E051C0173539F480E092E08D
:10180000909341038093400309C01B3639F40E9432
:10181000ED087093EA046093E904E7CF80916D03CB
:1018200090916E03892B29F41F3619F40E948A06C1
:10183000DCCF173939F480E092E09093E80480938C
:10184000E704D3CF1B3B31F480916B0390916C0381
:10185000029607C0173B59F480916B0390916C037B
:10186000029790936C0380936B030C9400171E3BBC
:1018700031F48091690390916A03029608C01D3B80
:1018800009F0B3CF8091690390916A030297909316
:101890006A03809369030C9400176D917D9141E078
:1018A00050E0653A36E0730714F440E050E09C01E4
:1018B0002E5F3F4F02C0440F551F2A95E2F701E00B
:1018C00010E0643125E0720714F000E010E0082E0B
:1018D00002C0000F111F0A94E2F7402B512B6551F3
:1018E000754021E030E06F38714010F020E030E0CA
:1018F000BC016F5F7F4F02C0220F331F6A95E2F772
:10190000242B352BE22BF32B03968C30910529F6F3
:101910002DE633E06BEE74E0D9018D919D919D0130
:101920008E239F2341E0892B09F440E0DB014D9396
:10193000BD0188AC8A12F0CF9091EC0480914203F3
:1019400091110C9407172091E5043091E60423339C
:10195000310514F00C9407170C9413178091E404CC
:10196000823051F028F4882339F0813029F006C004
:10197000833011F0843011F41092E4040E94ED08D9
:1019800060930F05709310058093110590931205D5
:101990002091E9043091EA045B01A21AB30AB092E3
:1019A000E304A092E20410EFA1161AE0B10630F3AE
:1019B0007093EA046093E9048BE30E9433088091FA
:1019C000310690E0982F882720913206822B91953E
:1019D0008195910923E0959587952A95E1F7909354
:1019E0003303809332038091330690E0982F882749
:1019F00020913406822B91958195910943E095952C
:101A000087954A95E1F7909335038093340380914D
:101A1000350690E0982F882720913606822B63E0C8
:101A2000959587956A95E1F79093370380933603F0
:101A30008091E7049091E804009709F466C001974B
:101A40009093E8048093E704E7EEF3E020E030E0D1
:101A50008F3F41E0940721F4108211821282138299
:101A6000D901A65EBC4F58964D915C915997052EB1
:101A7000000C660B770BC080D180E280F3804C0DA8
:101A80005D1D6E1D7F1D4193519361937193D9012B
:101A9000AC56BD4F19E075956795579547951A95C2
:101AA000D1F712965C934E9311972E5F3F4F2630DD
:101AB000310571F6892B49F58091990290919A022E
:101AC000925090939A028093990210926A03109216
:101AD000690310926C0310926B03E4E9F2E085E570
:101AE00089AC8E1619F09191890FFACF8093A302D9
:101AF00040E150E060E070E084E992E00E949917D4
:101B000041E064E18FE00E945E0680913203909193
:101B100033032091950230919602821B930B909390
:101B200033038093320380913403909135032091E5
:101B3000970230919802821B930B90933503809308
:101B400034038091360390913703209199023091AC
:101B50009A02821B930B90933703809336030E9463
:101B6000ED086B017C018091030490910404B6019F
:101B7000681B790B80E090E00E94C61829E134E4EC
:101B800042E959E30E9454192B013C01D09204040C
:101B9000C092030427EF33E03C8F2B8F4AE153E0E0
:101BA00058A34F8FCE0101961C018A01C12CD12C64
:101BB00076011F8AAB8DBC8D8D909D90AD90BC90B1
:101BC000D501C40174E0B695A795979587957A9548
:101BD000D1F7F80191838083408D518D481B590BBB
:101BE000052E000C660B770B480D591D6A1D7B1DD9
:101BF000EB8DFC8D4193519361937193FC8FEB8F2F
:101C0000BC010E942605C60ED71EE81EF91ED8018B
:101C100052966D917C915397072E000C880B990B6F
:101C20000E94C818A30192010E9454190E949018A2
:101C3000F101619371931F01FF89FF5FFF8B0E5FBD
:101C40001F4FF33009F0B6CFBE016F5F7F4F8CE1BD
:101C500091E00E943905BE016F5F7F4F80E191E006
:101C60000E943905CD2CDE2CEF2CFF24E7FCFA94E2
:101C700017E6C11A13E0D10A6CE1E62E61E0F62EF8
:101C80000AE113E0412C512C320122E3C21621E07B
:101C9000D206F8F4D8018D919C91F701228133810D
:101CA000821B930B092E000CAA0BBB0B46E0880F7E
:101CB000991FAA1FBB1F4A95D1F7408151816281AC
:101CC0007381840F951FA61FB71F80839183A28302
:101CD000B383D70112966D917C911397F80181918E
:101CE00091918F010E942605460E571E681E791E8F
:101CF000F4E0EF0EF11C28E2E21621E0F20629F6EC
:101D0000209126013091270180914203213D3140ED
:101D100014F0806801C08F778093420380911E0188
:101D200090911F01BC010E9426056B017C018091EE
:101D3000260190912701BC010E942605460157010A
:101D4000860E971EA81EB91E8F8A988EA98EBA8EEF
:101D50008091220190912301BC010E942605680D0B
:101D6000791D8A1D9B1D0E94C8188B019C01359509
:101D7000279517950795A9EFCA2EDD24DA94AFE1D0
:101D8000EA2EAFE5FA2EC01AD10AE20AF30A27E3D7
:101D900036E344E35FE30E945419A70196010E94D1
:101DA0005419A70196010E9454199B01AC0166EFDA
:101DB00078E487ED9FE30E94B1179B01AC01C70156
:101DC000B6010E9454196B8F7C8F8D8F9E8F00916E
:101DD0001E0110911F012091260130912701032E31
:101DE000000C440B550BB801012E000C880B990B0D
:101DF0000E94BC0590933B0380933A036F89788DD2
:101E0000898D9A8D0E94C8186B017C01DC01CB0181
:101E1000B595A7959795879539EF832E99249A9430
:101E20003FE1A32E3FE5B32E881A990AAA0ABB0AFE
:101E300027E336E344E35FE3C701B6010E94541988
:101E4000A50194010E945419A50194010E945419FE
:101E50009B01AC0166EF78E487ED9FE30E94B11728
:101E60009B01AC01C501B4010E945419A701960160
:101E70000E9454190E9490189B01AC01809122018C
:101E800090912301BC01990F880B990B0E94BC050E
:101E900090933D0380933C03A0911601B0911701EC
:101EA0002F89388D498D5A8D0E942C1A6B017C0127
:101EB000B80180911201909113010E9426054B01F7
:101EC0005C01609126017091270180911A01909127
:101ED0001B010E942605A5019401260F371F481FEC
:101EE000591FA0912201B09123010E942C1AA70131
:101EF0009601261B370B480B590BCA01B9010E94EA
:101F0000C8182B8D3C8D4D8D5E8D0E9454190E94FA
:101F100090189B01AC0160911E0170911F0180918E
:101F20001A0190911B012BAF3CAF4DAF5EAF0E94E9
:101F300026056B017C01609126017091270180913B
:101F40001201909113010E94260546015701861A3D
:101F5000970AA80AB90AC501B4012BAD3CAD4DAD35
:101F60005EAD0E94BC056AE070E00E94C1197093EA
:101F70003F0360933E03C301B2010E94C8182B8D3A
:101F80003C8D4D8D5E8D0E9454190E9490182091B9
:101F9000420321FD14C04091F3035091F4039A01D0
:101FA000E3E035952795EA95E1F75A01A21AB30ABD
:101FB0009501260F371F3093F4032093F3032091EC
:101FC000F3033091F40343E0359527954A95E1F703
:101FD000AB01421B530B5093F6034093F5030E9451
:101FE000D40280912C0390912D039093BF04809391
:101FF000BE0480912E0390912F039093C10480938F
:10200000C00480913003909131039093C304809376
:10201000C2040E94ED082B012091030530910405B4
:102020002D3D15E03107A4F080916603203D47E087
:10203000340754F4B9016C5D7540869FA001879FF9
:10204000500D1124852F869590E8992E981A02C07C
:1020500090E8992E20906403312C0DEF602E04E05F
:10206000702E8AED94E098AB8FA7A4E4B3E0BAA3F6
:10207000A9A35D01FC0140E050E080E8882ED30177
:102080006D917D913D016D3DB5E07B072CF0603D8C
:1020900017E0710764F008C08CED95E0861B970B84
:1020A000843FA1E09A0734F084EF91E003C0CB01B4
:1020B0008C5D95404230510509F469C08C01000FD8
:1020C000012F001F110B1195D801AA0FBB1FA050A3
:1020D000BD4FED90FC90F88EEF8A7801EE0CFF1C5E
:1020E000D701AE5FBC4FED90FC90AF89B88DEA1A76
:1020F000FB0A1695102F0027179507956C01C01A3B
:10210000D10AEC9C8001ED9C100DFC9C100D11245B
:10211000000F012F001F110B11950A0F1B1F1183B8
:102120000083829DD001839DB00D929DB00D11243E
:102130008B2F8695B82DB81BB99DC0011124880F2F
:10214000892F881F990B9195D501FC90F89E8001ED
:10215000F99E100D1124000F012F001F110B119576
:10216000DA01A852BB4F0C93D50112961C91189F0F
:10217000D001199FB00D1124CD01880F892F881F20
:10218000990B9195DA01A653BB4F8C9302C09183B2
:1021900080836C3D75403CF480819181919581955F
:1021A0009109918380834F5F5F4F329613E0A10EB8
:1021B000B11C4330510509F062CF2B3B44E034079A
:1021C0003CF0213D57E035072CF020ED37E002C010
:1021D0002BEB34E02B5B3440AFEFB9E00E94161AD2
:1021E00025E133E040E050E00E94D519832F992784
:1021F000FC01EE0FFF1FE651FD4F60817181FC0174
:10220000EE0FFF1FE451FD4F0190F081E02DE61B22
:10221000F70B982F88278901081B190BE09FC00135
:10222000E19F900DF09F900D1124892F9927680F41
:10223000791F7093E1046093E0048091B7048F5F8D
:102240008093B7048091E7049091E804892B31F4DE
:102250008091400390914103892B11F01D9A08C091
:102260008091420382FD2D988091420381FD2D9A39
:1022700040910F0550911005609111057091120564
:102280008091B3049091B404A091B504B091B604C8
:1022900084179507A607B70700F58091420387FDCD
:1022A00019C08B7F809342031D9A80910F059091F6
:1022B0001005A0911105B091120580569947AE4FB7
:1022C000BF4F8093B3049093B404A093B504B0932C
:1022D000B60403C08460809342030E94ED0810920C
:1022E000E9029091930180910504981B00E012E0AF
:1022F000A2E37A2EB8E0EB2EB7E0FB2E88EEC82ED4
:1023000083E0D82EAA24A394B12C8FEF890F9923B0
:1023100009F411C29091920120919101921B9F7733
:102320009F3408F008C290910504E92FF0E0EC56C4
:10233000FE4F208130919301391719F09F5F9093E0
:1023400005049091B204911104C091E0243259F433
:10235000EEC1913019F42D3431F4E3C1923029F4F7
:102360002C3309F4E0C190E0E2C1933069F42134E8
:1023700008F0DFC12093B1042093E8021092B0046A
:102380001092E70294E0D3C1943049F42093E6021E
:102390009091E80229272093E80295E0C8C1953082
:1023A00009F0C5C1E091B0044091B1043091E80258
:1023B000E41760F432273093E80231E03E0F3093A7
:1023C000B004F0E0EA55FD4F2083B1C13213ADC136
:1023D0008091E602853709F438C108F059C08D367E
:1023E00009F427C138F5873609F402C1B8F48536F7
:1023F00009F4CFC008F0F8C0843609F08BC180EF33
:10240000898383E08A831B8280E090E0A0E0B0E7CC
:102410008C839D83AE83BF8367E0E3C0893609F474
:1024200004C108F4F3C08C3609F074C166E08AE395
:1024300093E03CC1813709F40BC148F48F3609F4AD
:10244000FCC008F0FEC067E080E994E02FC183374C
:1024500009F412C108F000C11A8219828091AE03FA
:102460009091AF039C838B83FE82ED82D886CF82CE
:102470001A8619861C861B861D861E861F86188A4C
:102480001A8A198A1B8A1C8A1D8A1E8A66E1A9C0BB
:102490008F3C09F46AC0F8F48A3C09F452C090F405
:1024A000883709F4A9C0883C09F443C0873709F08C
:1024B00031C164E080E00E949804F8E68F2EF0E0DD
:1024C0009F2ECFC08C3C09F44AC008F440C08D3C1C
:1024D00009F4DDC01FC18F3E09F49CC050F4833D58
:1024E00009F451C0843D09F48BC0803D09F012C14C
:1024F000C7C08A3F09F4D4C090F4803F09F00AC1F4
:1025000064E080E00E94980462E08BE693E00E9421
:10251000790462E089E693E00E947904FFC08D3F70
:1025200009F4C7C08E3F09F0F5C068E088E894E080
:10253000BDC060E180EA94E00E944A0470929F046A
:10254000F4C00E94D3046EE184E493E005C00E94CD
:10255000D30468E08DE693E00E944A04E6C00E943E
:10256000D30467E082E693E0F7CF0E94D30466E1EC
:10257000CE0101960E944A048B819C819093AF0307
:102580008093AE03D2C00E94D30462E088E393E05C
:10259000E3CF8091E2049091E3049A838983809150
:1025A000A4029091A5029C838B83BE82AD82209170
:1025B000420323FF05C082E090E0A0E0B0E003C04A
:1025C00080E090E0DC0124FD846025FD886021FD31
:1025D00081608F839887A987BA87809194028B87BF
:1025E0006BE0CE01019662C062E18AE193E05EC0D9
:1025F00060E180E391E05AC068E386E793E056C06B
:102600000E94D30468E386E793E0A6CF60E18AE006
:1026100093E04CC00E94D30462E08BE693E00E94FA
:102620004A0462E089E693E097CF60E18DEF94E0A1
:102630003DC066E089E994E039C067E082E693E056
:1026400035C06EE184E493E031C083E890E006C0D9
:1026500068E08DE693E02AC08CE690E00E94BC041E
:1026600064C0F40184910E946104FFEF8F1A9F0AF5
:102670002AAD2811F6CF52C068E088E291E016C07A
:102680008091420381FD0FC00E94DD070CC0809144
:10269000420381FD08C01093E8040093E70403C0DF
:1026A00080E00E94B9070E94D3043FC00E94D90471
:1026B0003CC08091870490918604891708F4805863
:1026C000982E991A30E1391510F4E0E19E2E692D0B
:1026D00080E00E949804812C891401F1E091860425
:1026E000809187048E1789F0662463946E0E609241
:1026F0008604F0E0EA5FFB4F80810E94610440E8BD
:10270000641206C01092860403C080E00E94610437
:102710008394E2CF60E081E00E9498040E948A04E2
:1027200004C092E004C093E002C090E080E0909387
:10273000B204982FEACD0E94ED08641975096A3831
:102740007240CCF30E94D402EEEBF4E060E2E62E9D
:1027500063E0F62E08EB14E073E0C72ED12CD7010E
:102760001C962D913C911D9780819181280F391FD6
:1027700021933193D8018D919C91820F931FB601C3
:102780000E94C119D7016D937D937D0135952795E1
:10279000D8012D933D938D01B4E0E43CFB07F9F69D
:1027A0002091DE043091DF04A9014B5B5F4F8090E4
:1027B00042038F8A80913E0390913F034B3851052D
:1027C00070F585FE2CC04091380350913903841B6D
:1027D000950B8D341FEF910714F488599E4F843B5D
:1027E000910514F0885691408F8887FC04C0409171
:1027F00043034370C1F060915C03689FA001699F2F
:10280000500D1124CA0145E0959587954A95E1F749
:10281000281B390B3093DF042093DE0404C090930F
:102820003903809338039F8894FE22C0C090DC0453
:10283000D090DD04D7FE03C0D194C194D10880911B
:10284000DA049091DB0497FF03C09195819591097B
:102850009601C816D9060CF49C01213012E031070C
:1028600014F020E032E06901330FEE08FF0803C0E6
:10287000C12CD12C760107EF14E028ED34E03EABFB
:102880002DAB44ED54E05AA749A780ED94E098A7FA
:102890008FA3ACECB4E0BEA3ADA3EAECF4E0FCABD8
:1028A000EBAB24EC34E03AAB29AB4FEE54E05C8F59
:1028B0004B8F212C312C5F8958715FABAFA5B8A924
:1028C000AD90BD90B8ABAFA7AA0CBB1CEF8DF8A123
:1028D00026813781D8014D915C91C90137FF04C031
:1028E00088279927821B930B81389240ACF4C5014D
:1028F000821B930B840F951F8138EEE39E0714F023
:1029000080E89EE38038F1EC9F0714F480E891ECB6
:10291000D8018D939C9303C0F80111821082D801D5
:102920008D919C91880F892F881F990BE9A1FAA19D
:102930002181289FD001299FB00D11244D0186E0EF
:10294000959487948A95E1F79CA28BA2608170E0B0
:10295000C5010E9426052B013C0196E07594679401
:10296000579447949A95D1F742012FA9222309F44D
:1029700099C0F101E35BFE4F808191818A0D9B1D1F
:10298000853F31E0930714F084EF91E08C304EEFF7
:10299000940714F48CE09EEFF101E65CFC4F20817B
:1029A00031815C01A21AB30AF101EC5BFC4F85A1F5
:1029B00096A18A0D9B1DAB8DBC8D8D909C90880E31
:1029C000991EB1E18B16B7E29B0624F0A0E18A2E96
:1029D000A7E29A2EE0EF8E16E8ED9E0624F4F0EFC3
:1029E0008F2EF8ED9F2EAB8DBC8D8D929C926091B9
:1029F000590370E00E942605AB01BC01E7E0759524
:102A0000679557954795EA95D1F780915B03B5E0B7
:102A10008B9FC0011124AA24BB24A81AB90A4A1505
:102A20005B052CF05A01841795070CF45C0160914A
:102A30005A0370E0C4010E9426059B01AC01FCE032
:102A40005595479537952795FA95D1F72BA73CA72C
:102A50004DA75EA7ABA1BCA1A21BB30BA70196011A
:102A60000E942C1ADC01CB0169E0B595A7959795DA
:102A700087956A95D1F78BA49CA4880E991E9CA279
:102A80008BA2D201AA19BB090E942C1ADC01CB012E
:102A900079E0B595A795979587957A95D1F74501F2
:102AA000880E991EADA9BEA96D91BEABADAB70E00D
:102AB000EF8DF8A1868197810E942605092C000CD4
:102AC000AA08BB08DC01CB0176E0B595A7959795E0
:102AD00087957A95D1F7881A990AAA0ABB0AAF8D09
:102AE000B8A116968D919C911797E9A5FAA520811A
:102AF0003181AC01421B530B9A0181939193FAA748
:102B0000E9A7AFA1B8A54D915C911197EDA1FEA1E8
:102B100080819181840F951F41935193FEA3EDA372
:102B20002D933D93B8A7AFA3ABA9BCA96D91BCAB46
:102B3000ABAB70E0820F931F0E942605ABA1BCA136
:102B4000A80DB91DAB01BC01E5E0759567955795DA
:102B50004795EA95D1F7A41BB50BE9A9FAA9A1936A
:102B6000B193FAABE9ABF2E02F0E311C2F8D38A1F7
:102B70002E5F3F4F38A32F8F0E5F1F4F49A15AA1E1
:102B80004D5F5F4F5AA349A38B8D9C8D02969C8FFE
:102B90008B8F94E02916310409F090CE6091650383
:102BA00070E0615F7F4F660F771F8091DE04909128
:102BB000DF040E9426054B015C0165E0B594A794F3
:102BC000979487946A95D1F7809124039091250377
:102BD0007401E81AF90A60914B0370E0C7010E9482
:102BE00026054090F3045090F4046090F504709032
:102BF000F604940197FE04C02227332728193909C7
:102C00002333310524F5DC01CB01840D951DA61D70
:102C1000B71D8F3FEFEF9E07AE07EFE0BE0724F032
:102C20008EEF9FEFAFEFBFE082309105A105F0EF8F
:102C3000BF0724F482E090E0A0E0B0EF8093F304BB
:102C40009093F404A093F504B093F60408C0109296
:102C5000F3041092F4041092F5041092F6046091BB
:102C60004A0370E0C7010E9426056B017C0146E023
:102C7000F594E794D794C7944A95D1F790914C0373
:102C80002CE231E04901891A910844275527481957
:102C90005909C416D5062CF0A6018C149D040CF419
:102CA000A4018091F3049091F404A091F504B091F3
:102CB000F6043DE0B595A795979587953A95D1F798
:102CC00086301FEF910734F08B3F91052CF08AEF8F
:102CD00090E002C086E09FEF9A01280F391F3093E1
:102CE000C9042093C8044091E0045091E10480910C
:102CF000C4049091C504BA01681B790BA091C60465
:102D0000B091C704FB01EA0FFB1FE21BF30BF0932A
:102D10000B03E0930A036A1B7B0B620F731F709314
:102D20000D0360930C03480F591FCA018A0F9B1FA4
:102D3000820F931F90930F0380930E034A1B5B0B2C
:102D4000421B530B509311034093100386179707B0
:102D50000CF4CB01841795070CF4CA018E179F075A
:102D60000CF4CF014091AE035091AF03A091030545
:102D7000B0910405EAE0F3E024E0E22E68E077E0B9
:102D80005B01A81AB90A1F891074D12E1F8912700D
:102D9000F12E08EE13E0893027E0920734F020810D
:102DA00031812A0D3B1D31832083208131812417FD
:102DB00035073CF0293067E0360724F028E037E09B
:102DC00001C09A0131832083AB3B24E0B20724F495
:102DD000D11002C051834083F11002C011830083DF
:102DE000EA943296E110D7CF0E94EA0480E090E0A6
:102DF000892B11F40C94F70A0E9400000C94EB0A42
:102E000081E00E94B9071092FB040C94F50B83FD3E
:102E100019C01092F0041092EF041092F204109274
:102E2000F10488600DC083FF08C01092F80410926E
:102E3000F7041092FA041092F90480914203877FFC
:102E4000809342038091ED04882389F080914203AE
:102E5000877F8093420384FD1BC01092F004109280
:102E6000EF041092F2041092F10480610FC080917F
:102E7000420384FF08C01092F8041092F7041092E5
:102E8000FA041092F904809142038F7E80934203EA
:102E90008091EB04811105C0809142038160809391
:102EA00042038091EE04882399F08091420385FFCC
:102EB00002C00C94BE0C80628093420380913E035A
:102EC00090913F0390933903809338030C94BE0C88
:102ED000809142038F7D809342030C94BE0CE5E801
:102EE000F1E01382128288EE93E0A0E0B0E08483E8
:102EF0009583A683B78385E591E0918380830895C8
:102F0000FC0105900020E9F7809590958E0F9F1F9A
:102F10000895DC01CB01FC01F999FECF06C0F2BD9A
:102F2000E1BDF89A319600B40D9241505040B8F787
:102F30000895DC01CB0103C02D910E94A4174150DC
:102F40005040D0F70895262FF999FECF1FBA92BDB1
:102F500081BD20BD0FB6F894FA9AF99A0FBE01967A
:102F600008955058BB27AA270E94C9170C941A1914
:102F70000E940C1938F00E94131920F039F49F3F79
:102F800019F426F40C9409190EF4E095E7FB0C945F
:102F90000319E92F0E942B1958F3BA176207730718
:102FA0008407950720F079F4A6F50C944D190EF4DA
:102FB000E0950B2EBA2FA02D0B01B90190010C0149
:102FC000CA01A0011124FF27591B99F0593F50F461
:102FD000503E68F11A16F040A22F232F342F4427B9
:102FE000585FF3CF469537952795A795F0405395B1
:102FF000C9F77EF41F16BA0B620B730B840BBAF081
:103000009150A1F0FF0FBB1F661F771F881FC2F7EB
:103010000EC0BA0F621F731F841F48F487957795FF
:103020006795B795F7959E3F08F0B0CF9395880FB9
:1030300008F09927EE0F9795879508950E9432180A
:103040000C941A190E94131958F00E940C1940F0A0
:1030500029F45F3F29F00C94031951110C944E1977
:103060000C9409190E942B1968F39923B1F3552385
:1030700091F3951B550BBB27AA276217730784078B
:1030800038F09F5F5F4F220F331F441FAA1FA9F321
:1030900035D00E2E3AF0E0E832D091505040E6950F
:1030A000001CCAF72BD0FE2F29D0660F771F881F70
:1030B000BB1F261737074807AB07B0E809F0BB0B63
:1030C000802DBF01FF2793585F4F3AF09E3F510577
:1030D00078F00C9403190C944E195F3FE4F3983E7A
:1030E000D4F3869577956795B795F7959F5FC9F760
:1030F000880F911D9695879597F90895E1E0660FE1
:10310000771F881FBB1F621773078407BA0720F059
:10311000621B730B840BBA0BEE1F88F7E0950895C2
:103120000E9497186894B1110C944E1908950E944A
:10313000331988F09F5798F0B92F9927B751B0F0FD
:10314000E1F0660F771F881F991F1AF0BA95C9F72B
:1031500014C0B13091F00E944D19B1E008950C9463
:103160004D19672F782F8827B85F39F0B93FCCF316
:10317000869577956795B395D9F73EF490958095A8
:10318000709561957F4F8F4F9F4F0895E89409C0C8
:1031900097FB3EF490958095709561957F4F8F4F8A
:1031A0009F4F9923A9F0F92F96E9BB279395F695A0
:1031B000879577956795B795F111F8CFFAF4BB0F1E
:1031C00011F460FF1BC06F5F7F4F8F4F9F4F16C082
:1031D000882311F096E911C0772321F09EE8872F0C
:1031E000762F05C0662371F096E8862F70E060E0C8
:1031F0002AF09A95660F771F881FDAF7880F969541
:10320000879597F9089597F99F6780E870E060E0E7
:1032100008959FEF80EC089500240A94161617066F
:1032200018060906089500240A94121613061406B7
:1032300005060895092E0394000C11F4882352F01A
:10324000BB0F40F4BF2B11F460FF04C06F5F7F4FD2
:103250008F4F9F4F089557FD9058440F551F59F0B9
:103260005F3F71F04795880F97FB991F61F09F3F73
:1032700079F087950895121613061406551FF2CF9C
:103280004695F1DF08C0161617061806991FF1CFEC
:1032900086957105610508940895E894BB27662713
:1032A0007727CB0197F908950E9467190C941A1992
:1032B0000E940C1938F00E94131920F0952311F088
:1032C0000C9403190C94091911240C944E190E94A2
:1032D0002B1970F3959FC1F3950F50E0551F629F16
:1032E000F001729FBB27F00DB11D639FAA27F00D5F
:1032F000B11DAA1F649F6627B00DA11D661F829F86
:103300002227B00DA11D621F739FB00DA11D621F6A
:10331000839FA00D611D221F749F3327A00D611D87
:10332000231F849F600D211D822F762F6A2F112469
:103330009F5750409AF0F1F088234AF0EE0FFF1F9C
:10334000BB1F661F771F881F91505040A9F79E3FF3
:10335000510580F00C9403190C944E195F3FE4F36F
:10336000983ED4F3869577956795B795F795E79549
:103370009F5FC1F7FE2B880F911D9695879597F952
:10338000089597FB072E16F4009407D077FD09D017
:103390000E94341A07FC05D03EF4909581959F4F0A
:1033A0000895709561957F4F0895A1E21A2EAA1B8A
:1033B000BB1BFD010DC0AA1FBB1FEE1FFF1FA217E5
:1033C000B307E407F50720F0A21BB30BE40BF50BE2
:1033D000661F771F881F991F1A9469F7609570956B
:1033E000809590959B01AC01BD01CF010895052EFC
:1033F00097FB1EF400940E940E1A57FD07D00E94FE
:10340000D51907FC03D04EF40C940E1A5095409534
:10341000309521953F4F4F4F5F4F08959095809580
:10342000709561957F4F8F4F9F4F0895A29FB00178
:10343000B39FC001A39F700D811D1124911DB29FE8
:10344000700D811D1124911D08950E94161AB7FF59
:103450000895821B930B0895B7FF0C944E1A0E9497
:103460004E1A821B930B0895AA1BBB1B51E107C088
:10347000AA1FBB1FA617B70710F0A61BB70B881F04
:10348000991F5A95A9F780959095BC01CD01089593
:10349000EE0FFF1F0590F491E02D09940E94161A7B
:1034A000A59F900DB49F900DA49F800D911D112498
:1034B000089581E090E0F8940C945E1AF894FFCFA0
:1034C000DE05DE05DE05DE05DE05DE05DE05DE05E4
:1034D00000000000000000010000000000000000EB
:1034E0000000000000000002090A0B030605100C92
:1034F000DC05DC05DC05DC05DC05DC05DC05E803BA
:1035000004102040800405060207000103000000AB
:10351000000000000048013401FF00D800F600E779
:1035200000D900696E697469616C697A6174696F48
:0E3530006E20636F6D706C657465640A000038
:00000001FF
